{
  "_format": "hh-sol-artifact-1",
  "contractName": "PredictaToken",
  "sourceName": "contracts/PredictaERC20Token.sol",
  "abi": [
    {
      "inputs": [],
      "stateMutability": "nonpayable",
      "type": "constructor"
    },
    {
      "anonymous": false,
      "inputs": [
        {
          "indexed": true,
          "internalType": "address",
          "name": "owner",
          "type": "address"
        },
        {
          "indexed": true,
          "internalType": "address",
          "name": "spender",
          "type": "address"
        },
        {
          "indexed": false,
          "internalType": "uint256",
          "name": "value",
          "type": "uint256"
        }
      ],
      "name": "Approval",
      "type": "event"
    },
    {
      "anonymous": false,
      "inputs": [
        {
          "indexed": true,
          "internalType": "address",
          "name": "from",
          "type": "address"
        },
        {
          "indexed": true,
          "internalType": "address",
          "name": "to",
          "type": "address"
        },
        {
          "indexed": false,
          "internalType": "uint256",
          "name": "value",
          "type": "uint256"
        }
      ],
      "name": "Transfer",
      "type": "event"
    },
    {
      "inputs": [
        {
          "internalType": "uint256",
          "name": "_amount",
          "type": "uint256"
        }
      ],
      "name": "GetSomePredictaTestTokens",
      "outputs": [],
      "stateMutability": "nonpayable",
      "type": "function"
    },
    {
      "inputs": [
        {
          "internalType": "address",
          "name": "_UserAddress",
          "type": "address"
        },
        {
          "internalType": "uint256",
          "name": "_amount",
          "type": "uint256"
        }
      ],
      "name": "GetSomePredictaTestTokensToUser",
      "outputs": [],
      "stateMutability": "nonpayable",
      "type": "function"
    },
    {
      "inputs": [
        {
          "internalType": "address",
          "name": "owner",
          "type": "address"
        },
        {
          "internalType": "address",
          "name": "spender",
          "type": "address"
        }
      ],
      "name": "allowance",
      "outputs": [
        {
          "internalType": "uint256",
          "name": "",
          "type": "uint256"
        }
      ],
      "stateMutability": "view",
      "type": "function"
    },
    {
      "inputs": [
        {
          "internalType": "address",
          "name": "spender",
          "type": "address"
        },
        {
          "internalType": "uint256",
          "name": "amount",
          "type": "uint256"
        }
      ],
      "name": "approve",
      "outputs": [
        {
          "internalType": "bool",
          "name": "",
          "type": "bool"
        }
      ],
      "stateMutability": "nonpayable",
      "type": "function"
    },
    {
      "inputs": [
        {
          "internalType": "address",
          "name": "account",
          "type": "address"
        }
      ],
      "name": "balanceOf",
      "outputs": [
        {
          "internalType": "uint256",
          "name": "",
          "type": "uint256"
        }
      ],
      "stateMutability": "view",
      "type": "function"
    },
    {
      "inputs": [],
      "name": "decimals",
      "outputs": [
        {
          "internalType": "uint8",
          "name": "",
          "type": "uint8"
        }
      ],
      "stateMutability": "view",
      "type": "function"
    },
    {
      "inputs": [
        {
          "internalType": "address",
          "name": "spender",
          "type": "address"
        },
        {
          "internalType": "uint256",
          "name": "subtractedValue",
          "type": "uint256"
        }
      ],
      "name": "decreaseAllowance",
      "outputs": [
        {
          "internalType": "bool",
          "name": "",
          "type": "bool"
        }
      ],
      "stateMutability": "nonpayable",
      "type": "function"
    },
    {
      "inputs": [
        {
          "internalType": "address",
          "name": "spender",
          "type": "address"
        },
        {
          "internalType": "uint256",
          "name": "addedValue",
          "type": "uint256"
        }
      ],
      "name": "increaseAllowance",
      "outputs": [
        {
          "internalType": "bool",
          "name": "",
          "type": "bool"
        }
      ],
      "stateMutability": "nonpayable",
      "type": "function"
    },
    {
      "inputs": [],
      "name": "name",
      "outputs": [
        {
          "internalType": "string",
          "name": "",
          "type": "string"
        }
      ],
      "stateMutability": "view",
      "type": "function"
    },
    {
      "inputs": [],
      "name": "symbol",
      "outputs": [
        {
          "internalType": "string",
          "name": "",
          "type": "string"
        }
      ],
      "stateMutability": "view",
      "type": "function"
    },
    {
      "inputs": [],
      "name": "totalSupply",
      "outputs": [
        {
          "internalType": "uint256",
          "name": "",
          "type": "uint256"
        }
      ],
      "stateMutability": "view",
      "type": "function"
    },
    {
      "inputs": [
        {
          "internalType": "address",
          "name": "to",
          "type": "address"
        },
        {
          "internalType": "uint256",
          "name": "amount",
          "type": "uint256"
        }
      ],
      "name": "transfer",
      "outputs": [
        {
          "internalType": "bool",
          "name": "",
          "type": "bool"
        }
      ],
      "stateMutability": "nonpayable",
      "type": "function"
    },
    {
      "inputs": [
        {
          "internalType": "address",
          "name": "from",
          "type": "address"
        },
        {
          "internalType": "address",
          "name": "to",
          "type": "address"
        },
        {
          "internalType": "uint256",
          "name": "amount",
          "type": "uint256"
        }
      ],
      "name": "transferFrom",
      "outputs": [
        {
          "internalType": "bool",
          "name": "",
          "type": "bool"
        }
      ],
      "stateMutability": "nonpayable",
      "type": "function"
    }
  ],
  "bytecode": "0x608060405234801561001057600080fd5b50604080518082018252600e81526d283932b234b1ba30902a37b5b2b760911b602080830191825283518085019094526002845261141560f21b90840152815191929161005f9160039161007b565b50805161007390600490602084019061007b565b50505061014f565b82805461008790610114565b90600052602060002090601f0160209004810192826100a957600085556100ef565b82601f106100c257805160ff19168380011785556100ef565b828001600101855582156100ef579182015b828111156100ef5782518255916020019190600101906100d4565b506100fb9291506100ff565b5090565b5b808211156100fb5760008155600101610100565b600181811c9082168061012857607f821691505b6020821081141561014957634e487b7160e01b600052602260045260246000fd5b50919050565b61099e8061015e6000396000f3fe608060405234801561001057600080fd5b50600436106100cf5760003560e01c8063395093511161008c57806395d89b411161006657806395d89b41146101ad578063a457c2d7146101b5578063a9059cbb146101c8578063dd62ed3e146101db57600080fd5b8063395093511461015e578063574995561461017157806370a082311461018457600080fd5b806305b8ab07146100d457806306fdde03146100e9578063095ea7b31461010757806318160ddd1461012a57806323b872dd1461013c578063313ce5671461014f575b600080fd5b6100e76100e23660046107de565b6101ee565b005b6100f16101fc565b6040516100fe9190610808565b60405180910390f35b61011a6101153660046107de565b61028e565b60405190151581526020016100fe565b6002545b6040519081526020016100fe565b61011a61014a36600461085d565b6102a6565b604051601281526020016100fe565b61011a61016c3660046107de565b6102ca565b6100e761017f366004610899565b6102ec565b61012e6101923660046108b2565b6001600160a01b031660009081526020819052604090205490565b6100f16102f9565b61011a6101c33660046107de565b610308565b61011a6101d63660046107de565b610388565b61012e6101e93660046108d4565b610396565b6101f882826103c1565b5050565b60606003805461020b90610907565b80601f016020809104026020016040519081016040528092919081815260200182805461023790610907565b80156102845780601f1061025957610100808354040283529160200191610284565b820191906000526020600020905b81548152906001019060200180831161026757829003601f168201915b5050505050905090565b60003361029c818585610480565b5060019392505050565b6000336102b48582856105a4565b6102bf85858561061e565b506001949350505050565b60003361029c8185856102dd8383610396565b6102e79190610942565b610480565b6102f633826103c1565b50565b60606004805461020b90610907565b600033816103168286610396565b90508381101561037b5760405162461bcd60e51b815260206004820152602560248201527f45524332303a2064656372656173656420616c6c6f77616e63652062656c6f77604482015264207a65726f60d81b60648201526084015b60405180910390fd5b6102bf8286868403610480565b60003361029c81858561061e565b6001600160a01b03918216600090815260016020908152604080832093909416825291909152205490565b6001600160a01b0382166104175760405162461bcd60e51b815260206004820152601f60248201527f45524332303a206d696e7420746f20746865207a65726f2061646472657373006044820152606401610372565b80600260008282546104299190610942565b90915550506001600160a01b038216600081815260208181526040808320805486019055518481527fddf252ad1be2c89b69c2b068fc378daa952ba7f163c4a11628f55a4df523b3ef910160405180910390a35050565b6001600160a01b0383166104e25760405162461bcd60e51b8152602060048201526024808201527f45524332303a20617070726f76652066726f6d20746865207a65726f206164646044820152637265737360e01b6064820152608401610372565b6001600160a01b0382166105435760405162461bcd60e51b815260206004820152602260248201527f45524332303a20617070726f766520746f20746865207a65726f206164647265604482015261737360f01b6064820152608401610372565b6001600160a01b0383811660008181526001602090815260408083209487168084529482529182902085905590518481527f8c5be1e5ebec7d5bd14f71427d1e84f3dd0314c0f7b2291e5b200ac8c7c3b925910160405180910390a3505050565b60006105b08484610396565b90506000198114610618578181101561060b5760405162461bcd60e51b815260206004820152601d60248201527f45524332303a20696e73756666696369656e7420616c6c6f77616e63650000006044820152606401610372565b6106188484848403610480565b50505050565b6001600160a01b0383166106825760405162461bcd60e51b815260206004820152602560248201527f45524332303a207472616e736665722066726f6d20746865207a65726f206164604482015264647265737360d81b6064820152608401610372565b6001600160a01b0382166106e45760405162461bcd60e51b815260206004820152602360248201527f45524332303a207472616e7366657220746f20746865207a65726f206164647260448201526265737360e81b6064820152608401610372565b6001600160a01b0383166000908152602081905260409020548181101561075c5760405162461bcd60e51b815260206004820152602660248201527f45524332303a207472616e7366657220616d6f756e7420657863656564732062604482015265616c616e636560d01b6064820152608401610372565b6001600160a01b03848116600081815260208181526040808320878703905593871680835291849020805487019055925185815290927fddf252ad1be2c89b69c2b068fc378daa952ba7f163c4a11628f55a4df523b3ef910160405180910390a3610618565b80356001600160a01b03811681146107d957600080fd5b919050565b600080604083850312156107f157600080fd5b6107fa836107c2565b946020939093013593505050565b600060208083528351808285015260005b8181101561083557858101830151858201604001528201610819565b81811115610847576000604083870101525b50601f01601f1916929092016040019392505050565b60008060006060848603121561087257600080fd5b61087b846107c2565b9250610889602085016107c2565b9150604084013590509250925092565b6000602082840312156108ab57600080fd5b5035919050565b6000602082840312156108c457600080fd5b6108cd826107c2565b9392505050565b600080604083850312156108e757600080fd5b6108f0836107c2565b91506108fe602084016107c2565b90509250929050565b600181811c9082168061091b57607f821691505b6020821081141561093c57634e487b7160e01b600052602260045260246000fd5b50919050565b6000821982111561096357634e487b7160e01b600052601160045260246000fd5b50019056fea2646970667358221220dcd959481d9cd96eeb370dad8d3debde562f9c6efb38d67816fa12d38bb9aa7964736f6c63430008090033",
  "linkReferences": {},
  "deployedLinkReferences": {}
}