{
  "_format": "hh-sol-artifact-1",
  "contractName": "Predicta",
  "sourceName": "contracts/Predicta.sol",
  "abi": [
    {
      "inputs": [
        {
          "internalType": "address",
          "name": "_NFTSubscriptionPlansAddress",
          "type": "address"
        },
        {
          "internalType": "address",
          "name": "_PredictaTokenAddress",
          "type": "address"
        }
      ],
      "stateMutability": "nonpayable",
      "type": "constructor"
    },
    {
      "inputs": [
        {
          "internalType": "string",
          "name": "_EventName",
          "type": "string"
        },
        {
          "internalType": "string",
          "name": "_EventDescription",
          "type": "string"
        },
        {
          "internalType": "uint256",
          "name": "_EventCategory",
          "type": "uint256"
        }
      ],
      "name": "CreateEvent",
      "outputs": [],
      "stateMutability": "nonpayable",
      "type": "function"
    },
    {
      "inputs": [
        {
          "internalType": "uint256",
          "name": "_EventId",
          "type": "uint256"
        },
        {
          "internalType": "uint256",
          "name": "_EventCorrectVote",
          "type": "uint256"
        }
      ],
      "name": "EndEvent",
      "outputs": [],
      "stateMutability": "nonpayable",
      "type": "function"
    },
    {
      "inputs": [],
      "name": "GetAllEvents",
      "outputs": [
        {
          "components": [
            {
              "internalType": "address",
              "name": "EventCreator",
              "type": "address"
            },
            {
              "internalType": "uint256",
              "name": "EventId",
              "type": "uint256"
            },
            {
              "internalType": "string",
              "name": "EventName",
              "type": "string"
            },
            {
              "internalType": "string",
              "name": "EventDescription",
              "type": "string"
            },
            {
              "internalType": "uint256",
              "name": "EventCategory",
              "type": "uint256"
            },
            {
              "internalType": "uint256",
              "name": "YesVotes",
              "type": "uint256"
            },
            {
              "internalType": "uint256",
              "name": "NoVotes",
              "type": "uint256"
            },
            {
              "internalType": "bool",
              "name": "IsEnded",
              "type": "bool"
            }
          ],
          "internalType": "struct Predicta.Event[]",
          "name": "",
          "type": "tuple[]"
        }
      ],
      "stateMutability": "view",
      "type": "function"
    },
    {
      "inputs": [
        {
          "internalType": "uint256",
          "name": "_EventId",
          "type": "uint256"
        },
        {
          "internalType": "uint256",
          "name": "_YesOrNo",
          "type": "uint256"
        }
      ],
      "name": "VoteOnEvents",
      "outputs": [],
      "stateMutability": "nonpayable",
      "type": "function"
    }
  ],
  "bytecode": "0x60806040523480156200001157600080fd5b5060405162001bf238038062001bf2833981016040819052620000349162000093565b600080546001600160a01b039384166001600160a01b0319918216179091556002805492909316918116919091179091556001805490911633179055620000cb565b80516001600160a01b03811681146200008e57600080fd5b919050565b60008060408385031215620000a757600080fd5b620000b28362000076565b9150620000c26020840162000076565b90509250929050565b611b1780620000db6000396000f3fe608060405234801561001057600080fd5b506004361061004c5760003560e01c80638c2b137514610051578063b65689cd14610066578063ba7823dd14610084578063f0ca480d14610097575b600080fd5b61006461005f36600461184c565b6100aa565b005b61006e610330565b60405161007b9190611906565b60405180910390f35b6100646100923660046119e3565b610507565b6100646100a53660046119e3565b610e35565b600054604051630b65f8f560e41b81523360048201819052916001600160a01b03169063b65f8f509060240160206040518083038186803b1580156100ee57600080fd5b505afa158015610102573d6000803e3d6000fd5b505050506040513d601f19601f820116820180604052508101906101269190611a05565b6003146101a05760405162461bcd60e51b815260206004820152603e60248201527f594f75206861766520746f20626520636f6e7472616374206f776e6572206f7260448201527f207072656d69756d207573657220746f20637265617465206576656e7473000060648201526084015b60405180910390fd5b600380549060006101b083611a34565b9091555050604080516101008101825233815260035460208083019182529282018781526060830187905260808301869052600060a0840181905260c0840181905260e0840181905260098054600181018255915283517f6e1540171b6c0c960b71a7020d9f60077f6af931a8bbf590da0223dacf75c7af600890920291820180546001600160a01b0319166001600160a01b0390921691909117815592517f6e1540171b6c0c960b71a7020d9f60077f6af931a8bbf590da0223dacf75c7b082015590518051939485946102ab937f6e1540171b6c0c960b71a7020d9f60077f6af931a8bbf590da0223dacf75c7b1019290910190611710565b50606082015180516102c7916003840191602090910190611710565b506080820151600482015560a0820151600582015560c082015160068083019190915560e0909201516007909101805491151560ff1992831617905533600090815260209283526040808220600354835290935291909120805490911660011790555050505050565b60606009805480602002602001604051908101604052809291908181526020016000905b828210156104fe57600084815260209081902060408051610100810182526008860290920180546001600160a01b03168352600181015493830193909352600283018054929392918401916103a890611a4f565b80601f01602080910402602001604051908101604052809291908181526020018280546103d490611a4f565b80156104215780601f106103f657610100808354040283529160200191610421565b820191906000526020600020905b81548152906001019060200180831161040457829003601f168201915b5050505050815260200160038201805461043a90611a4f565b80601f016020809104026020016040519081016040528092919081815260200182805461046690611a4f565b80156104b35780601f10610488576101008083540402835291602001916104b3565b820191906000526020600020905b81548152906001019060200180831161049657829003601f168201915b50505091835250506004820154602080830191909152600583015460408301526006830154606083015260079092015460ff1615156080909101529082526001929092019101610354565b50505050905090565b33600090815260066020908152604080832085845290915290205460ff16151560011461059c5760405162461bcd60e51b815260206004820152603d60248201527f596f7520636f756c64206e6f7420656e642074686174206576656e742c20796f60448201527f7520617265206e6f7420746865206576656e7427732063726561746f720000006064820152608401610197565b60005b600954811015610652576000600982815481106105be576105be611a8a565b90600052602060002090600802019050838160010154141561063f57600781015460ff161561062f5760405162461bcd60e51b815260206004820152601e60248201527f596f752063616e206e6f7420656e6420616e20656e646564206576656e7400006044820152606401610197565b60078101805460ff191660011790555b508061064a81611a34565b91505061059f565b5080610a40576000828152600860209081526040808320805482518185028101850190935280835291929091908301828280156106b857602002820191906000526020600020905b81546001600160a01b0316815260019091019060200180831161069a575b5050505050905060005b8151811015610a3d5760008282815181106106df576106df611a8a565b6020908102919091010151600054604051630b65f8f560e41b81526001600160a01b03808416600483015292935091169063b65f8f509060240160206040518083038186803b15801561073157600080fd5b505afa158015610745573d6000803e3d6000fd5b505050506040513d601f19601f820116820180604052508101906107699190611a05565b600114156108005760025460405163a9059cbb60e01b81526001600160a01b038381166004830152678ac7230489e8000060248301529091169063a9059cbb90604401602060405180830381600087803b1580156107c657600080fd5b505af11580156107da573d6000803e3d6000fd5b505050506040513d601f19601f820116820180604052508101906107fe9190611aa0565b505b600054604051630b65f8f560e41b81526001600160a01b0383811660048301529091169063b65f8f509060240160206040518083038186803b15801561084557600080fd5b505afa158015610859573d6000803e3d6000fd5b505050506040513d601f19601f8201168201806040525081019061087d9190611a05565b600214156109155760025460405163a9059cbb60e01b81526001600160a01b0383811660048301526801158e460913d0000060248301529091169063a9059cbb90604401602060405180830381600087803b1580156108db57600080fd5b505af11580156108ef573d6000803e3d6000fd5b505050506040513d601f19601f820116820180604052508101906109139190611aa0565b505b600054604051630b65f8f560e41b81526001600160a01b0383811660048301529091169063b65f8f509060240160206040518083038186803b15801561095a57600080fd5b505afa15801561096e573d6000803e3d6000fd5b505050506040513d601f19601f820116820180604052508101906109929190611a05565b60031415610a2a5760025460405163a9059cbb60e01b81526001600160a01b0383811660048301526801a055690d9db8000060248301529091169063a9059cbb90604401602060405180830381600087803b1580156109f057600080fd5b505af1158015610a04573d6000803e3d6000fd5b505050506040513d601f19601f82011682018060405250810190610a289190611aa0565b505b5080610a3581611a34565b9150506106c2565b50505b8060011415610e3157600082815260076020908152604080832080548251818502810185019093528083529192909190830182828015610aa957602002820191906000526020600020905b81546001600160a01b03168152600190910190602001808311610a8b575b5050505050905060005b8151811015610e2e576000828281518110610ad057610ad0611a8a565b6020908102919091010151600054604051630b65f8f560e41b81526001600160a01b03808416600483015292935091169063b65f8f509060240160206040518083038186803b158015610b2257600080fd5b505afa158015610b36573d6000803e3d6000fd5b505050506040513d601f19601f82011682018060405250810190610b5a9190611a05565b60011415610bf15760025460405163a9059cbb60e01b81526001600160a01b038381166004830152678ac7230489e8000060248301529091169063a9059cbb90604401602060405180830381600087803b158015610bb757600080fd5b505af1158015610bcb573d6000803e3d6000fd5b505050506040513d601f19601f82011682018060405250810190610bef9190611aa0565b505b600054604051630b65f8f560e41b81526001600160a01b0383811660048301529091169063b65f8f509060240160206040518083038186803b158015610c3657600080fd5b505afa158015610c4a573d6000803e3d6000fd5b505050506040513d601f19601f82011682018060405250810190610c6e9190611a05565b60021415610d065760025460405163a9059cbb60e01b81526001600160a01b0383811660048301526801158e460913d0000060248301529091169063a9059cbb90604401602060405180830381600087803b158015610ccc57600080fd5b505af1158015610ce0573d6000803e3d6000fd5b505050506040513d601f19601f82011682018060405250810190610d049190611aa0565b505b600054604051630b65f8f560e41b81526001600160a01b0383811660048301529091169063b65f8f509060240160206040518083038186803b158015610d4b57600080fd5b505afa158015610d5f573d6000803e3d6000fd5b505050506040513d601f19601f82011682018060405250810190610d839190611a05565b60031415610e1b5760025460405163a9059cbb60e01b81526001600160a01b0383811660048301526801a055690d9db8000060248301529091169063a9059cbb90604401602060405180830381600087803b158015610de157600080fd5b505af1158015610df5573d6000803e3d6000fd5b505050506040513d601f19601f82011682018060405250810190610e199190611aa0565b505b5080610e2681611a34565b915050610ab3565b50505b5050565b600054604051630b65f8f560e41b81523360048201819052916001600160a01b03169063b65f8f509060240160206040518083038186803b158015610e7957600080fd5b505afa158015610e8d573d6000803e3d6000fd5b505050506040513d601f19601f82011682018060405250810190610eb19190611a05565b60011480610f3b5750600054604051630b65f8f560e41b81526001600160a01b0383811660048301529091169063b65f8f509060240160206040518083038186803b158015610eff57600080fd5b505afa158015610f13573d6000803e3d6000fd5b505050506040513d601f19601f82011682018060405250810190610f379190611a05565b6002145b80610fc25750600054604051630b65f8f560e41b81526001600160a01b0383811660048301529091169063b65f8f509060240160206040518083038186803b158015610f8657600080fd5b505afa158015610f9a573d6000803e3d6000fd5b505050506040513d601f19601f82011682018060405250810190610fbe9190611a05565b6003145b61102a5760405162461bcd60e51b815260206004820152603360248201527f596f75206e65656420746f20737562736372696265206f6e20707265646963746044820152726120746f20766f7465206f6e206576656e747360681b6064820152608401610197565b33600090815260056020908152604080832086845290915290205460ff16156110a15760405162461bcd60e51b815260206004820152602360248201527f596f75206861766520766f746564206f6e2074686174206576656e74206265666044820152626f726560e81b6064820152608401610197565b60005b6009548110156116e45783600982815481106110c2576110c2611a8a565b90600052602060002090600802016001015414156116d257600981815481106110ed576110ed611a8a565b600091825260209091206007600890920201015460ff16156111465760405162461bcd60e51b81526020600482015260126024820152711d1a1948195d995b9d081a5cc8195b99195960721b6044820152606401610197565b60006009828154811061115b5761115b611a8a565b6000918252602082209154604051630b65f8f560e41b81526001600160a01b0387811660048301526008939093029093019350169063b65f8f509060240160206040518083038186803b1580156111b157600080fd5b505afa1580156111c5573d6000803e3d6000fd5b505050506040513d601f19601f820116820180604052508101906111e99190611a05565b600114156113375733600090815260046020908152604080832060018452909152902054600510156112705760405162461bcd60e51b815260206004820152602a60248201527f426173696320757365722063616e206f6e6c7920766f7465203520766f746573604482015269206f6e206576656e747360b01b6064820152608401610197565b836112bb5760068101805490600061128783611a34565b909155505060008581526008602090815260408220805460018101825590835291200180546001600160a01b031916331790555b836001141561130a576005810180549060006112d683611a34565b909155505060008581526007602090815260408220805460018101825590835291200180546001600160a01b031916331790555b33600090815260046020908152604080832060018452909152812080549161133183611a34565b91905055505b600054604051630b65f8f560e41b81526001600160a01b0385811660048301529091169063b65f8f509060240160206040518083038186803b15801561137c57600080fd5b505afa158015611390573d6000803e3d6000fd5b505050506040513d601f19601f820116820180604052508101906113b49190611a05565b600214156115065733600090815260046020908152604080832060028452909152902054600a10156114435760405162461bcd60e51b815260206004820152603260248201527f496e7465726d65646961746520757365722063616e206f6e6c7920766f746520604482015271313020766f746573206f6e206576656e747360701b6064820152608401610197565b8361148c576006810154611458906002611ac9565b600682015560008581526008602090815260408220805460018101825590835291200180546001600160a01b031916331790555b83600114156114d95760058101546114a5906002611ac9565b600582015560008581526007602090815260408220805460018101825590835291200180546001600160a01b031916331790555b33600090815260046020908152604080832060028452909152812080549161150083611a34565b91905055505b600054604051630b65f8f560e41b81526001600160a01b0385811660048301529091169063b65f8f509060240160206040518083038186803b15801561154b57600080fd5b505afa15801561155f573d6000803e3d6000fd5b505050506040513d601f19601f820116820180604052508101906115839190611a05565b600314156116d057336000908152600460209081526040808320600184529091529020546014101561160d5760405162461bcd60e51b815260206004820152602d60248201527f5072656d69756d20757365722063616e206f6e6c7920766f746520323020766f60448201526c746573206f6e206576656e747360981b6064820152608401610197565b83611656576006810154611622906003611ac9565b600682015560008581526008602090815260408220805460018101825590835291200180546001600160a01b031916331790555b83600114156116a357600581015461166f906003611ac9565b600582015560008581526007602090815260408220805460018101825590835291200180546001600160a01b031916331790555b3360009081526004602090815260408083206003845290915281208054916116ca83611a34565b91905055505b505b806116dc81611a34565b9150506110a4565b505033600090815260056020908152604080832094835293905291909120805460ff1916600117905550565b82805461171c90611a4f565b90600052602060002090601f01602090048101928261173e5760008555611784565b82601f1061175757805160ff1916838001178555611784565b82800160010185558215611784579182015b82811115611784578251825591602001919060010190611769565b50611790929150611794565b5090565b5b808211156117905760008155600101611795565b634e487b7160e01b600052604160045260246000fd5b600082601f8301126117d057600080fd5b813567ffffffffffffffff808211156117eb576117eb6117a9565b604051601f8301601f19908116603f01168101908282118183101715611813576118136117a9565b8160405283815286602085880101111561182c57600080fd5b836020870160208301376000602085830101528094505050505092915050565b60008060006060848603121561186157600080fd5b833567ffffffffffffffff8082111561187957600080fd5b611885878388016117bf565b9450602086013591508082111561189b57600080fd5b506118a8868287016117bf565b925050604084013590509250925092565b6000815180845260005b818110156118df576020818501810151868301820152016118c3565b818111156118f1576000602083870101525b50601f01601f19169290920160200192915050565b60006020808301818452808551808352604092508286019150828160051b87010184880160005b838110156119d557888303603f19018552815180516001600160a01b031684528781015188850152868101516101008886018190529061196f828701826118b9565b9150506060808301518683038288015261198983826118b9565b6080858101519089015260a0808601519089015260c0808601519089015260e094850151801515868a01529490935091506119c19050565b50958801959350509086019060010161192d565b509098975050505050505050565b600080604083850312156119f657600080fd5b50508035926020909101359150565b600060208284031215611a1757600080fd5b5051919050565b634e487b7160e01b600052601160045260246000fd5b6000600019821415611a4857611a48611a1e565b5060010190565b600181811c90821680611a6357607f821691505b60208210811415611a8457634e487b7160e01b600052602260045260246000fd5b50919050565b634e487b7160e01b600052603260045260246000fd5b600060208284031215611ab257600080fd5b81518015158114611ac257600080fd5b9392505050565b60008219821115611adc57611adc611a1e565b50019056fea26469706673582212205a8561a565505c54ff98b347c4d162707c77d829c48761ac9dd35136141c8a0564736f6c63430008090033",
  "linkReferences": {},
  "deployedLinkReferences": {}
}