{
  "_format": "hh-sol-artifact-1",
  "contractName": "NFTSubscriptionPlans",
  "sourceName": "contracts/NFTSubscriptionPlans.sol",
  "abi": [
    {
      "inputs": [
        {
          "internalType": "string",
          "name": "_categoryone",
          "type": "string"
        },
        {
          "internalType": "string",
          "name": "_categorytwo",
          "type": "string"
        },
        {
          "internalType": "string",
          "name": "_categorythree",
          "type": "string"
        },
        {
          "internalType": "address",
          "name": "_PredictaTokenAddress",
          "type": "address"
        }
      ],
      "stateMutability": "nonpayable",
      "type": "constructor"
    },
    {
      "anonymous": false,
      "inputs": [
        {
          "indexed": true,
          "internalType": "address",
          "name": "owner",
          "type": "address"
        },
        {
          "indexed": true,
          "internalType": "address",
          "name": "approved",
          "type": "address"
        },
        {
          "indexed": true,
          "internalType": "uint256",
          "name": "tokenId",
          "type": "uint256"
        }
      ],
      "name": "Approval",
      "type": "event"
    },
    {
      "anonymous": false,
      "inputs": [
        {
          "indexed": true,
          "internalType": "address",
          "name": "owner",
          "type": "address"
        },
        {
          "indexed": true,
          "internalType": "address",
          "name": "operator",
          "type": "address"
        },
        {
          "indexed": false,
          "internalType": "bool",
          "name": "approved",
          "type": "bool"
        }
      ],
      "name": "ApprovalForAll",
      "type": "event"
    },
    {
      "anonymous": false,
      "inputs": [
        {
          "indexed": true,
          "internalType": "address",
          "name": "from",
          "type": "address"
        },
        {
          "indexed": true,
          "internalType": "address",
          "name": "to",
          "type": "address"
        },
        {
          "indexed": true,
          "internalType": "uint256",
          "name": "tokenId",
          "type": "uint256"
        }
      ],
      "name": "Transfer",
      "type": "event"
    },
    {
      "inputs": [
        {
          "internalType": "uint256",
          "name": "_categoryid",
          "type": "uint256"
        }
      ],
      "name": "CancelCurrentPlan",
      "outputs": [],
      "stateMutability": "nonpayable",
      "type": "function"
    },
    {
      "inputs": [],
      "name": "GetBasicMintingFees",
      "outputs": [
        {
          "internalType": "uint256",
          "name": "",
          "type": "uint256"
        }
      ],
      "stateMutability": "view",
      "type": "function"
    },
    {
      "inputs": [
        {
          "internalType": "uint256",
          "name": "_categoryid",
          "type": "uint256"
        }
      ],
      "name": "GetCategoryName",
      "outputs": [
        {
          "internalType": "string",
          "name": "",
          "type": "string"
        }
      ],
      "stateMutability": "view",
      "type": "function"
    },
    {
      "inputs": [],
      "name": "GetIntermediateMintingFees",
      "outputs": [
        {
          "internalType": "uint256",
          "name": "",
          "type": "uint256"
        }
      ],
      "stateMutability": "view",
      "type": "function"
    },
    {
      "inputs": [],
      "name": "GetMyNFTTokenId",
      "outputs": [
        {
          "internalType": "uint256",
          "name": "",
          "type": "uint256"
        }
      ],
      "stateMutability": "view",
      "type": "function"
    },
    {
      "inputs": [
        {
          "internalType": "address",
          "name": "_UserAddress",
          "type": "address"
        }
      ],
      "name": "GetNFTCategoryOfSpecificUser",
      "outputs": [
        {
          "internalType": "uint256",
          "name": "",
          "type": "uint256"
        }
      ],
      "stateMutability": "view",
      "type": "function"
    },
    {
      "inputs": [],
      "name": "GetNFTCategoryOfUser",
      "outputs": [
        {
          "internalType": "uint256",
          "name": "",
          "type": "uint256"
        }
      ],
      "stateMutability": "view",
      "type": "function"
    },
    {
      "inputs": [],
      "name": "GetPremiumMintingFees",
      "outputs": [
        {
          "internalType": "uint256",
          "name": "",
          "type": "uint256"
        }
      ],
      "stateMutability": "view",
      "type": "function"
    },
    {
      "inputs": [
        {
          "internalType": "uint256",
          "name": "_categoryid",
          "type": "uint256"
        }
      ],
      "name": "MintNFT",
      "outputs": [],
      "stateMutability": "nonpayable",
      "type": "function"
    },
    {
      "inputs": [
        {
          "internalType": "address",
          "name": "to",
          "type": "address"
        },
        {
          "internalType": "uint256",
          "name": "tokenId",
          "type": "uint256"
        }
      ],
      "name": "approve",
      "outputs": [],
      "stateMutability": "nonpayable",
      "type": "function"
    },
    {
      "inputs": [
        {
          "internalType": "address",
          "name": "owner",
          "type": "address"
        }
      ],
      "name": "balanceOf",
      "outputs": [
        {
          "internalType": "uint256",
          "name": "",
          "type": "uint256"
        }
      ],
      "stateMutability": "view",
      "type": "function"
    },
    {
      "inputs": [
        {
          "internalType": "uint256",
          "name": "tokenId",
          "type": "uint256"
        }
      ],
      "name": "getApproved",
      "outputs": [
        {
          "internalType": "address",
          "name": "",
          "type": "address"
        }
      ],
      "stateMutability": "view",
      "type": "function"
    },
    {
      "inputs": [
        {
          "internalType": "address",
          "name": "owner",
          "type": "address"
        },
        {
          "internalType": "address",
          "name": "operator",
          "type": "address"
        }
      ],
      "name": "isApprovedForAll",
      "outputs": [
        {
          "internalType": "bool",
          "name": "",
          "type": "bool"
        }
      ],
      "stateMutability": "view",
      "type": "function"
    },
    {
      "inputs": [],
      "name": "name",
      "outputs": [
        {
          "internalType": "string",
          "name": "",
          "type": "string"
        }
      ],
      "stateMutability": "view",
      "type": "function"
    },
    {
      "inputs": [
        {
          "internalType": "uint256",
          "name": "tokenId",
          "type": "uint256"
        }
      ],
      "name": "ownerOf",
      "outputs": [
        {
          "internalType": "address",
          "name": "",
          "type": "address"
        }
      ],
      "stateMutability": "view",
      "type": "function"
    },
    {
      "inputs": [
        {
          "internalType": "address",
          "name": "from",
          "type": "address"
        },
        {
          "internalType": "address",
          "name": "to",
          "type": "address"
        },
        {
          "internalType": "uint256",
          "name": "tokenId",
          "type": "uint256"
        }
      ],
      "name": "safeTransferFrom",
      "outputs": [],
      "stateMutability": "nonpayable",
      "type": "function"
    },
    {
      "inputs": [
        {
          "internalType": "address",
          "name": "from",
          "type": "address"
        },
        {
          "internalType": "address",
          "name": "to",
          "type": "address"
        },
        {
          "internalType": "uint256",
          "name": "tokenId",
          "type": "uint256"
        },
        {
          "internalType": "bytes",
          "name": "data",
          "type": "bytes"
        }
      ],
      "name": "safeTransferFrom",
      "outputs": [],
      "stateMutability": "nonpayable",
      "type": "function"
    },
    {
      "inputs": [
        {
          "internalType": "address",
          "name": "operator",
          "type": "address"
        },
        {
          "internalType": "bool",
          "name": "approved",
          "type": "bool"
        }
      ],
      "name": "setApprovalForAll",
      "outputs": [],
      "stateMutability": "nonpayable",
      "type": "function"
    },
    {
      "inputs": [
        {
          "internalType": "bytes4",
          "name": "interfaceId",
          "type": "bytes4"
        }
      ],
      "name": "supportsInterface",
      "outputs": [
        {
          "internalType": "bool",
          "name": "",
          "type": "bool"
        }
      ],
      "stateMutability": "view",
      "type": "function"
    },
    {
      "inputs": [],
      "name": "symbol",
      "outputs": [
        {
          "internalType": "string",
          "name": "",
          "type": "string"
        }
      ],
      "stateMutability": "view",
      "type": "function"
    },
    {
      "inputs": [
        {
          "internalType": "uint256",
          "name": "tokenId",
          "type": "uint256"
        }
      ],
      "name": "tokenURI",
      "outputs": [
        {
          "internalType": "string",
          "name": "",
          "type": "string"
        }
      ],
      "stateMutability": "view",
      "type": "function"
    },
    {
      "inputs": [
        {
          "internalType": "address",
          "name": "from",
          "type": "address"
        },
        {
          "internalType": "address",
          "name": "to",
          "type": "address"
        },
        {
          "internalType": "uint256",
          "name": "tokenId",
          "type": "uint256"
        }
      ],
      "name": "transferFrom",
      "outputs": [],
      "stateMutability": "nonpayable",
      "type": "function"
    }
  ],
  "bytecode": "0x60806040526801158e460913d00000600b556802b5e3af16b1880000600c5568056bc75e2d63100000600d553480156200003857600080fd5b5060405162002a6938038062002a698339810160408190526200005b91620003c6565b604080518082018252601e81527f4e465441757468656e7469636174696f6e417574686f72697a6174696f6e00006020808301918252835180850190945260058452644e4654414160d81b908401528151919291620000bd9160009162000253565b508051620000d390600190602084019062000253565b5050600160005250600e6020908152845162000115917fa7c5ba7114a813b50159add3a36832908dc83db71d0b9a24c2ad0f83be958207919087019062000253565b506002600052600e6020908152835162000155917f9adb202b1492743bc00c81d33cdc6423fa8c79109027eb6a845391e8fc1f0481919086019062000253565b506003600052600e6020908152825162000195917fe0283e559c29e31ee7f56467acc9dd307779c843a883aeeb3bf5c6128c908144919085019062000253565b506040518060800160405280605e8152602001620029ad605e91398051620001c69160079160209091019062000253565b506040518060800160405280605e815260200162002a0b605e91398051620001f79160089160209091019062000253565b506040518060800160405280605e81526020016200294f605e91398051620002289160099160209091019062000253565b50600a80546001600160a01b0319166001600160a01b039290921691909117905550620004b6915050565b828054620002619062000479565b90600052602060002090601f016020900481019282620002855760008555620002d0565b82601f10620002a057805160ff1916838001178555620002d0565b82800160010185558215620002d0579182015b82811115620002d0578251825591602001919060010190620002b3565b50620002de929150620002e2565b5090565b5b80821115620002de5760008155600101620002e3565b634e487b7160e01b600052604160045260246000fd5b600082601f8301126200032157600080fd5b81516001600160401b03808211156200033e576200033e620002f9565b604051601f8301601f19908116603f01168101908282118183101715620003695762000369620002f9565b816040528381526020925086838588010111156200038657600080fd5b600091505b83821015620003aa57858201830151818301840152908201906200038b565b83821115620003bc5760008385830101525b9695505050505050565b60008060008060808587031215620003dd57600080fd5b84516001600160401b0380821115620003f557600080fd5b62000403888389016200030f565b955060208701519150808211156200041a57600080fd5b62000428888389016200030f565b945060408701519150808211156200043f57600080fd5b506200044e878288016200030f565b606087015190935090506001600160a01b03811681146200046e57600080fd5b939692955090935050565b600181811c908216806200048e57607f821691505b60208210811415620004b057634e487b7160e01b600052602260045260246000fd5b50919050565b61248980620004c66000396000f3fe608060405234801561001057600080fd5b50600436106101425760003560e01c80636352211e116100b8578063b361117a1161007c578063b361117a14610293578063b65f8f501461029b578063b88d4fde146102c4578063c87b56dd146102d7578063e985e9c5146102ea578063fd022f041461032657600080fd5b80636352211e1461023d57806370a082311461025057806372918af81461026357806395d89b4114610278578063a22cb4651461028057600080fd5b8063250a56a51161010a578063250a56a5146101d757806326874364146101ea5780632cc161d3146101fd57806342842e0e146102105780634de458691461022357806357bb14ed1461023557600080fd5b806301ffc9a71461014757806306fdde031461016f578063081812fc14610184578063095ea7b3146101af57806323b872dd146101c4575b600080fd5b61015a610155366004611f6f565b61033b565b60405190151581526020015b60405180910390f35b61017761038d565b6040516101669190611fe4565b610197610192366004611ff7565b61041f565b6040516001600160a01b039091168152602001610166565b6101c26101bd36600461202c565b610446565b005b6101c26101d2366004612056565b610561565b6101c26101e5366004611ff7565b610592565b6101776101f8366004611ff7565b610895565b6101c261020b366004611ff7565b610937565b6101c261021e366004612056565b61117f565b600d545b604051908152602001610166565b600b54610227565b61019761024b366004611ff7565b61119a565b61022761025e366004612092565b6111fa565b336000908152600f6020526040902054610227565b610177611280565b6101c261028e3660046120bb565b61128f565b600c54610227565b6102276102a9366004612092565b6001600160a01b03166000908152600f602052604090205490565b6101c26102d2366004612108565b61129e565b6101776102e5366004611ff7565b6112d6565b61015a6102f83660046121e4565b6001600160a01b03918216600090815260056020908152604080832093909416825291909152205460ff1690565b33600090815260126020526040902054610227565b60006001600160e01b031982166380ac58cd60e01b148061036c57506001600160e01b03198216635b5e139f60e01b145b8061038757506301ffc9a760e01b6001600160e01b03198316145b92915050565b60606000805461039c90612217565b80601f01602080910402602001604051908101604052809291908181526020018280546103c890612217565b80156104155780601f106103ea57610100808354040283529160200191610415565b820191906000526020600020905b8154815290600101906020018083116103f857829003601f168201915b5050505050905090565b600061042a826113e7565b506000908152600460205260409020546001600160a01b031690565b60006104518261119a565b9050806001600160a01b0316836001600160a01b031614156104c45760405162461bcd60e51b815260206004820152602160248201527f4552433732313a20617070726f76616c20746f2063757272656e74206f776e656044820152603960f91b60648201526084015b60405180910390fd5b336001600160a01b03821614806104e057506104e081336102f8565b6105525760405162461bcd60e51b815260206004820152603d60248201527f4552433732313a20617070726f76652063616c6c6572206973206e6f7420746f60448201527f6b656e206f776e6572206f7220617070726f76656420666f7220616c6c00000060648201526084016104bb565b61055c8383611446565b505050565b61056b33826114b4565b6105875760405162461bcd60e51b81526004016104bb90612252565b61055c838383611532565b806001141561069257336000908152600f602052604090205481146105f95760405162461bcd60e51b815260206004820152601860248201527f796f7520646f206e6f74206f776e206261736963206e6674000000000000000060448201526064016104bb565b33600090815260126020526040902054610612816116a3565b336000908152600f60209081526040808320839055601282528083208390556010825280832060018452909152812080549161064d836122b5565b90915550506001600090815260116020527f17bc176d2408558f6e4111feebc3cab4e16b63e967be91cde721f4c8a488b55280549161068b836122b5565b9190505550505b806002141561079257336000908152600f602052604090205481146106f95760405162461bcd60e51b815260206004820152601f60248201527f796f7520646f206e6f74206f776e20696e7465726d656469617465206e66740060448201526064016104bb565b33600090815260126020526040902054610712816116a3565b336000908152600f60209081526040808320839055601282528083208390556010825280832060028452909152812080549161074d836122b5565b90915550506002600090815260116020527f08037d7b151cc412d25674a4e66b334d9ae9d2e5517a7feaae5cdb828bf1c62880549161078b836122b5565b9190505550505b806003141561089257336000908152600f602052604090205481146107f95760405162461bcd60e51b815260206004820152601a60248201527f796f7520646f206e6f74206f776e207072656d69756d206e667400000000000060448201526064016104bb565b33600090815260126020526040902054610812816116a3565b336000908152600f60209081526040808320839055601282528083208390556010825280832060038452909152812080549161084d836122b5565b90915550506003600090815260116020527f9bfbaa59f8e10e7868f8b402de9d605a390c45ddaebd8c9de3c6f31e733c87ff80549161088b836122b5565b9190505550505b50565b6000818152600e602052604090208054606091906108b290612217565b80601f01602080910402602001604051908101604052809291908181526020018280546108de90612217565b801561092b5780601f106109005761010080835404028352916020019161092b565b820191906000526020600020905b81548152906001019060200180831161090e57829003601f168201915b50505050509050919050565b60018110158015610949575060038111155b6109895760405162461bcd60e51b815260206004820152601160248201527015dc9bdb99c818d85d1959dbdc9e481a59607a1b60448201526064016104bb565b60138054906000610999836122cc565b91905055508060011415610c8e57336000908152601060209081526040808320600284529091529020541580156109e9575033600090815260106020908152604080832060038452909152902054155b610a5b5760405162461bcd60e51b815260206004820152603a60248201527f596f75206861766520616c726561647920696e20616e6f7468657220706c616e60448201527f2c2077687920796f75206e65656420746865206261736963203f00000000000060648201526084016104bb565b336000908152601060209081526040808320600180855292529091205410610adb5760405162461bcd60e51b815260206004820152602d60248201527f557365722073686f756c642068617665206f6e65206e6674207065722063617460448201526c65676f7279202842617369632960981b60648201526084016104bb565b600a54600b546040516323b872dd60e01b815233600482015230602482015260448101919091526001600160a01b03909116906323b872dd90606401602060405180830381600087803b158015610b3157600080fd5b505af1158015610b45573d6000803e3d6000fd5b505050506040513d601f19601f82011682018060405250810190610b6991906122e7565b50610b76336013546116e3565b610c0c60135460078054610b8990612217565b80601f0160208091040260200160405190810160405280929190818152602001828054610bb590612217565b8015610c025780601f10610bd757610100808354040283529160200191610c02565b820191906000526020600020905b815481529060010190602001808311610be557829003601f168201915b50505050506116fd565b336000908152600f602090815260408083206001908190556013546012845282852055601083528184209084529091528120805491610c4a836122cc565b90915550506001600090815260116020527f17bc176d2408558f6e4111feebc3cab4e16b63e967be91cde721f4c8a488b552805491610c88836122cc565b91905055505b8060021415610f0d5733600090815260106020908152604080832060018452909152902054158015610cd9575033600090815260106020908152604080832060038452909152902054155b610d555760405162461bcd60e51b815260206004820152604160248201527f596f75206861766520616c726561647920696e20616e6f7468657220706c616e60448201527f2c2077687920796f75206e6565642074686520496e7465726d656469617465206064820152603f60f81b608482015260a4016104bb565b33600090815260106020908152604080832060028452909152902054600111610ddd5760405162461bcd60e51b815260206004820152603460248201527f557365722073686f756c642068617665206f6e65206e6674207065722063617460448201527365676f72792028496e7465726d6564696174652960601b60648201526084016104bb565b600a54600c546040516323b872dd60e01b815233600482015230602482015260448101919091526001600160a01b03909116906323b872dd90606401602060405180830381600087803b158015610e3357600080fd5b505af1158015610e47573d6000803e3d6000fd5b505050506040513d601f19601f82011682018060405250810190610e6b91906122e7565b50610e78336013546116e3565b610e8b60135460088054610b8990612217565b336000908152600f602090815260408083206002908190556013546012845282852055601083528184209084529091528120805491610ec9836122cc565b90915550506002600090815260116020527f08037d7b151cc412d25674a4e66b334d9ae9d2e5517a7feaae5cdb828bf1c628805491610f07836122cc565b91905055505b80600314156108925733600090815260106020908152604080832060018452909152902054158015610f58575033600090815260106020908152604080832060028452909152902054155b610fca5760405162461bcd60e51b815260206004820152603c60248201527f596f75206861766520616c726561647920696e20616e6f7468657220706c616e60448201527f2c2077687920796f75206e65656420746865205072656d69756d203f0000000060648201526084016104bb565b3360009081526010602090815260408083206003845290915290205460011161104d5760405162461bcd60e51b815260206004820152602f60248201527f557365722073686f756c642068617665206f6e65206e6674207065722063617460448201526e65676f727920285072656d69756d2960881b60648201526084016104bb565b600a54600d546040516323b872dd60e01b815233600482015230602482015260448101919091526001600160a01b03909116906323b872dd90606401602060405180830381600087803b1580156110a357600080fd5b505af11580156110b7573d6000803e3d6000fd5b505050506040513d601f19601f820116820180604052508101906110db91906122e7565b506110e8336013546116e3565b6110fb60135460088054610b8990612217565b336000908152600f602090815260408083206003908190556013546012845282852055601083528184209084529091528120805491611139836122cc565b90915550506003600090815260116020527f9bfbaa59f8e10e7868f8b402de9d605a390c45ddaebd8c9de3c6f31e733c87ff805491611177836122cc565b919050555050565b61055c8383836040518060200160405280600081525061129e565b6000818152600260205260408120546001600160a01b0316806103875760405162461bcd60e51b8152602060048201526018602482015277115490cdcc8c4e881a5b9d985b1a59081d1bdad95b88125160421b60448201526064016104bb565b60006001600160a01b0382166112645760405162461bcd60e51b815260206004820152602960248201527f4552433732313a2061646472657373207a65726f206973206e6f7420612076616044820152683634b21037bbb732b960b91b60648201526084016104bb565b506001600160a01b031660009081526003602052604090205490565b60606001805461039c90612217565b61129a338383611797565b5050565b6112a833836114b4565b6112c45760405162461bcd60e51b81526004016104bb90612252565b6112d084848484611866565b50505050565b60606112e1826113e7565b600082815260066020526040812080546112fa90612217565b80601f016020809104026020016040519081016040528092919081815260200182805461132690612217565b80156113735780601f1061134857610100808354040283529160200191611373565b820191906000526020600020905b81548152906001019060200180831161135657829003601f168201915b50505050509050600061139160408051602081019091526000815290565b90508051600014156113a4575092915050565b8151156113d65780826040516020016113be929190612304565b60405160208183030381529060405292505050919050565b6113df84611899565b949350505050565b6000818152600260205260409020546001600160a01b03166108925760405162461bcd60e51b8152602060048201526018602482015277115490cdcc8c4e881a5b9d985b1a59081d1bdad95b88125160421b60448201526064016104bb565b600081815260046020526040902080546001600160a01b0319166001600160a01b038416908117909155819061147b8261119a565b6001600160a01b03167f8c5be1e5ebec7d5bd14f71427d1e84f3dd0314c0f7b2291e5b200ac8c7c3b92560405160405180910390a45050565b6000806114c08361119a565b9050806001600160a01b0316846001600160a01b0316148061150757506001600160a01b0380821660009081526005602090815260408083209388168352929052205460ff165b806113df5750836001600160a01b03166115208461041f565b6001600160a01b031614949350505050565b826001600160a01b03166115458261119a565b6001600160a01b03161461156b5760405162461bcd60e51b81526004016104bb90612333565b6001600160a01b0382166115cd5760405162461bcd60e51b8152602060048201526024808201527f4552433732313a207472616e7366657220746f20746865207a65726f206164646044820152637265737360e01b60648201526084016104bb565b6115da838383600161190d565b826001600160a01b03166115ed8261119a565b6001600160a01b0316146116135760405162461bcd60e51b81526004016104bb90612333565b600081815260046020908152604080832080546001600160a01b03199081169091556001600160a01b0387811680865260038552838620805460001901905590871680865283862080546001019055868652600290945282852080549092168417909155905184937fddf252ad1be2c89b69c2b068fc378daa952ba7f163c4a11628f55a4df523b3ef91a4505050565b6116ac81611995565b600081815260066020526040902080546116c590612217565b15905061089257600081815260066020526040812061089291611e86565b61129a828260405180602001604052806000815250611a38565b6000828152600260205260409020546001600160a01b03166117785760405162461bcd60e51b815260206004820152602e60248201527f45524337323155524953746f726167653a2055524920736574206f66206e6f6e60448201526d32bc34b9ba32b73a103a37b5b2b760911b60648201526084016104bb565b6000828152600660209081526040909120825161055c92840190611ec0565b816001600160a01b0316836001600160a01b031614156117f95760405162461bcd60e51b815260206004820152601960248201527f4552433732313a20617070726f766520746f2063616c6c65720000000000000060448201526064016104bb565b6001600160a01b03838116600081815260056020908152604080832094871680845294825291829020805460ff191686151590811790915591519182527f17307eab39ab6107e8899845ad3d59bd9653f200f220920489ca2b5937696c31910160405180910390a3505050565b611871848484611532565b61187d84848484611a6b565b6112d05760405162461bcd60e51b81526004016104bb90612378565b60606118a4826113e7565b60006118bb60408051602081019091526000815290565b905060008151116118db5760405180602001604052806000815250611906565b806118e584611b78565b6040516020016118f6929190612304565b6040516020818303038152906040525b9392505050565b60018111156112d0576001600160a01b03841615611953576001600160a01b0384166000908152600360205260408120805483929061194d9084906123ca565b90915550505b6001600160a01b038316156112d0576001600160a01b0383166000908152600360205260408120805483929061198a9084906123e1565b909155505050505050565b60006119a08261119a565b90506119b081600084600161190d565b6119b98261119a565b600083815260046020908152604080832080546001600160a01b03199081169091556001600160a01b0385168085526003845282852080546000190190558785526002909352818420805490911690555192935084927fddf252ad1be2c89b69c2b068fc378daa952ba7f163c4a11628f55a4df523b3ef908390a45050565b611a428383611c15565b611a4f6000848484611a6b565b61055c5760405162461bcd60e51b81526004016104bb90612378565b60006001600160a01b0384163b15611b6d57604051630a85bd0160e11b81526001600160a01b0385169063150b7a0290611aaf9033908990889088906004016123f9565b602060405180830381600087803b158015611ac957600080fd5b505af1925050508015611af9575060408051601f3d908101601f19168201909252611af691810190612436565b60015b611b53573d808015611b27576040519150601f19603f3d011682016040523d82523d6000602084013e611b2c565b606091505b508051611b4b5760405162461bcd60e51b81526004016104bb90612378565b805181602001fd5b6001600160e01b031916630a85bd0160e11b1490506113df565b506001949350505050565b60606000611b8583611dae565b600101905060008167ffffffffffffffff811115611ba557611ba56120f2565b6040519080825280601f01601f191660200182016040528015611bcf576020820181803683370190505b5090508181016020015b600019016f181899199a1a9b1b9c1cb0b131b232b360811b600a86061a8153600a8504945084611c0857611c0d565b611bd9565b509392505050565b6001600160a01b038216611c6b5760405162461bcd60e51b815260206004820181905260248201527f4552433732313a206d696e7420746f20746865207a65726f206164647265737360448201526064016104bb565b6000818152600260205260409020546001600160a01b031615611cd05760405162461bcd60e51b815260206004820152601c60248201527f4552433732313a20746f6b656e20616c7265616479206d696e7465640000000060448201526064016104bb565b611cde60008383600161190d565b6000818152600260205260409020546001600160a01b031615611d435760405162461bcd60e51b815260206004820152601c60248201527f4552433732313a20746f6b656e20616c7265616479206d696e7465640000000060448201526064016104bb565b6001600160a01b038216600081815260036020908152604080832080546001019055848352600290915280822080546001600160a01b0319168417905551839291907fddf252ad1be2c89b69c2b068fc378daa952ba7f163c4a11628f55a4df523b3ef908290a45050565b60008072184f03e93ff9f4daa797ed6e38ed64bf6a1f0160401b8310611ded5772184f03e93ff9f4daa797ed6e38ed64bf6a1f0160401b830492506040015b6d04ee2d6d415b85acef81000000008310611e19576d04ee2d6d415b85acef8100000000830492506020015b662386f26fc100008310611e3757662386f26fc10000830492506010015b6305f5e1008310611e4f576305f5e100830492506008015b6127108310611e6357612710830492506004015b60648310611e75576064830492506002015b600a83106103875760010192915050565b508054611e9290612217565b6000825580601f10611ea2575050565b601f0160209004906000526020600020908101906108929190611f44565b828054611ecc90612217565b90600052602060002090601f016020900481019282611eee5760008555611f34565b82601f10611f0757805160ff1916838001178555611f34565b82800160010185558215611f34579182015b82811115611f34578251825591602001919060010190611f19565b50611f40929150611f44565b5090565b5b80821115611f405760008155600101611f45565b6001600160e01b03198116811461089257600080fd5b600060208284031215611f8157600080fd5b813561190681611f59565b60005b83811015611fa7578181015183820152602001611f8f565b838111156112d05750506000910152565b60008151808452611fd0816020860160208601611f8c565b601f01601f19169290920160200192915050565b6020815260006119066020830184611fb8565b60006020828403121561200957600080fd5b5035919050565b80356001600160a01b038116811461202757600080fd5b919050565b6000806040838503121561203f57600080fd5b61204883612010565b946020939093013593505050565b60008060006060848603121561206b57600080fd5b61207484612010565b925061208260208501612010565b9150604084013590509250925092565b6000602082840312156120a457600080fd5b61190682612010565b801515811461089257600080fd5b600080604083850312156120ce57600080fd5b6120d783612010565b915060208301356120e7816120ad565b809150509250929050565b634e487b7160e01b600052604160045260246000fd5b6000806000806080858703121561211e57600080fd5b61212785612010565b935061213560208601612010565b925060408501359150606085013567ffffffffffffffff8082111561215957600080fd5b818701915087601f83011261216d57600080fd5b81358181111561217f5761217f6120f2565b604051601f8201601f19908116603f011681019083821181831017156121a7576121a76120f2565b816040528281528a60208487010111156121c057600080fd5b82602086016020830137600060208483010152809550505050505092959194509250565b600080604083850312156121f757600080fd5b61220083612010565b915061220e60208401612010565b90509250929050565b600181811c9082168061222b57607f821691505b6020821081141561224c57634e487b7160e01b600052602260045260246000fd5b50919050565b6020808252602d908201527f4552433732313a2063616c6c6572206973206e6f7420746f6b656e206f776e6560408201526c1c881bdc88185c1c1c9bdd9959609a1b606082015260800190565b634e487b7160e01b600052601160045260246000fd5b6000816122c4576122c461229f565b506000190190565b60006000198214156122e0576122e061229f565b5060010190565b6000602082840312156122f957600080fd5b8151611906816120ad565b60008351612316818460208801611f8c565b83519083019061232a818360208801611f8c565b01949350505050565b60208082526025908201527f4552433732313a207472616e736665722066726f6d20696e636f72726563742060408201526437bbb732b960d91b606082015260800190565b60208082526032908201527f4552433732313a207472616e7366657220746f206e6f6e20455243373231526560408201527131b2b4bb32b91034b6b83632b6b2b73a32b960711b606082015260800190565b6000828210156123dc576123dc61229f565b500390565b600082198211156123f4576123f461229f565b500190565b6001600160a01b038581168252841660208201526040810183905260806060820181905260009061242c90830184611fb8565b9695505050505050565b60006020828403121561244857600080fd5b815161190681611f5956fea26469706673582212202d1fb23200245895a5f91e88a60cde941dfdf1c574324f1c72af848585d3761864736f6c6343000809003368747470733a2f2f697066732e696f2f697066732f6261667972656967666f62646b6e36613269647262617173327679687576766476646c6273626c326270617264336c6e7a376876327637687478342f6d657461646174612e6a736f6e68747470733a2f2f697066732e696f2f697066732f6261667972656965626a366f336866736c626977776236676f66686265367036716b37706c6871706e3478787866746e6e6c78643776636379616d2f6d657461646174612e6a736f6e68747470733a2f2f697066732e696f2f697066732f62616679726569686e746d78737361616c6577717171766a3261713768736f696d79617269327a6c736a6235716e616a7566366f626633726b6e342f6d657461646174612e6a736f6e",
  "linkReferences": {},
  "deployedLinkReferences": {}
}